{
  "contractName": "NFT",
  "abi": [
    {
      "inputs": [],
      "stateMutability": "nonpayable",
      "type": "constructor"
    },
    {
      "anonymous": false,
      "inputs": [
        {
          "indexed": true,
          "internalType": "address",
          "name": "owner",
          "type": "address"
        },
        {
          "indexed": true,
          "internalType": "address",
          "name": "approved",
          "type": "address"
        },
        {
          "indexed": true,
          "internalType": "uint256",
          "name": "tokenId",
          "type": "uint256"
        }
      ],
      "name": "Approval",
      "type": "event"
    },
    {
      "anonymous": false,
      "inputs": [
        {
          "indexed": true,
          "internalType": "address",
          "name": "owner",
          "type": "address"
        },
        {
          "indexed": true,
          "internalType": "address",
          "name": "operator",
          "type": "address"
        },
        {
          "indexed": false,
          "internalType": "bool",
          "name": "approved",
          "type": "bool"
        }
      ],
      "name": "ApprovalForAll",
      "type": "event"
    },
    {
      "anonymous": false,
      "inputs": [
        {
          "indexed": true,
          "internalType": "address",
          "name": "previousOwner",
          "type": "address"
        },
        {
          "indexed": true,
          "internalType": "address",
          "name": "newOwner",
          "type": "address"
        }
      ],
      "name": "OwnershipTransferred",
      "type": "event"
    },
    {
      "anonymous": false,
      "inputs": [
        {
          "indexed": true,
          "internalType": "address",
          "name": "from",
          "type": "address"
        },
        {
          "indexed": true,
          "internalType": "address",
          "name": "to",
          "type": "address"
        },
        {
          "indexed": true,
          "internalType": "uint256",
          "name": "tokenId",
          "type": "uint256"
        }
      ],
      "name": "Transfer",
      "type": "event"
    },
    {
      "inputs": [
        {
          "internalType": "address",
          "name": "to",
          "type": "address"
        },
        {
          "internalType": "uint256",
          "name": "tokenId",
          "type": "uint256"
        }
      ],
      "name": "approve",
      "outputs": [],
      "stateMutability": "nonpayable",
      "type": "function"
    },
    {
      "inputs": [
        {
          "internalType": "address",
          "name": "owner",
          "type": "address"
        }
      ],
      "name": "balanceOf",
      "outputs": [
        {
          "internalType": "uint256",
          "name": "",
          "type": "uint256"
        }
      ],
      "stateMutability": "view",
      "type": "function",
      "constant": true
    },
    {
      "inputs": [],
      "name": "communityWallet",
      "outputs": [
        {
          "internalType": "address",
          "name": "",
          "type": "address"
        }
      ],
      "stateMutability": "view",
      "type": "function",
      "constant": true
    },
    {
      "inputs": [
        {
          "internalType": "uint256",
          "name": "tokenId",
          "type": "uint256"
        }
      ],
      "name": "getApproved",
      "outputs": [
        {
          "internalType": "address",
          "name": "",
          "type": "address"
        }
      ],
      "stateMutability": "view",
      "type": "function",
      "constant": true
    },
    {
      "inputs": [
        {
          "internalType": "address",
          "name": "owner",
          "type": "address"
        },
        {
          "internalType": "address",
          "name": "operator",
          "type": "address"
        }
      ],
      "name": "isApprovedForAll",
      "outputs": [
        {
          "internalType": "bool",
          "name": "",
          "type": "bool"
        }
      ],
      "stateMutability": "view",
      "type": "function",
      "constant": true
    },
    {
      "inputs": [
        {
          "internalType": "address",
          "name": "",
          "type": "address"
        }
      ],
      "name": "mintsPerAddress",
      "outputs": [
        {
          "internalType": "uint256",
          "name": "",
          "type": "uint256"
        }
      ],
      "stateMutability": "view",
      "type": "function",
      "constant": true
    },
    {
      "inputs": [],
      "name": "name",
      "outputs": [
        {
          "internalType": "string",
          "name": "",
          "type": "string"
        }
      ],
      "stateMutability": "view",
      "type": "function",
      "constant": true
    },
    {
      "inputs": [],
      "name": "owner",
      "outputs": [
        {
          "internalType": "address",
          "name": "",
          "type": "address"
        }
      ],
      "stateMutability": "view",
      "type": "function",
      "constant": true
    },
    {
      "inputs": [
        {
          "internalType": "uint256",
          "name": "tokenId",
          "type": "uint256"
        }
      ],
      "name": "ownerOf",
      "outputs": [
        {
          "internalType": "address",
          "name": "",
          "type": "address"
        }
      ],
      "stateMutability": "view",
      "type": "function",
      "constant": true
    },
    {
      "inputs": [],
      "name": "renounceOwnership",
      "outputs": [],
      "stateMutability": "nonpayable",
      "type": "function"
    },
    {
      "inputs": [],
      "name": "reveal",
      "outputs": [
        {
          "internalType": "bool",
          "name": "",
          "type": "bool"
        }
      ],
      "stateMutability": "view",
      "type": "function",
      "constant": true
    },
    {
      "inputs": [
        {
          "internalType": "address",
          "name": "from",
          "type": "address"
        },
        {
          "internalType": "address",
          "name": "to",
          "type": "address"
        },
        {
          "internalType": "uint256",
          "name": "tokenId",
          "type": "uint256"
        }
      ],
      "name": "safeTransferFrom",
      "outputs": [],
      "stateMutability": "nonpayable",
      "type": "function"
    },
    {
      "inputs": [
        {
          "internalType": "address",
          "name": "from",
          "type": "address"
        },
        {
          "internalType": "address",
          "name": "to",
          "type": "address"
        },
        {
          "internalType": "uint256",
          "name": "tokenId",
          "type": "uint256"
        },
        {
          "internalType": "bytes",
          "name": "_data",
          "type": "bytes"
        }
      ],
      "name": "safeTransferFrom",
      "outputs": [],
      "stateMutability": "nonpayable",
      "type": "function"
    },
    {
      "inputs": [
        {
          "internalType": "address",
          "name": "operator",
          "type": "address"
        },
        {
          "internalType": "bool",
          "name": "approved",
          "type": "bool"
        }
      ],
      "name": "setApprovalForAll",
      "outputs": [],
      "stateMutability": "nonpayable",
      "type": "function"
    },
    {
      "inputs": [
        {
          "internalType": "bytes4",
          "name": "interfaceId",
          "type": "bytes4"
        }
      ],
      "name": "supportsInterface",
      "outputs": [
        {
          "internalType": "bool",
          "name": "",
          "type": "bool"
        }
      ],
      "stateMutability": "view",
      "type": "function",
      "constant": true
    },
    {
      "inputs": [],
      "name": "symbol",
      "outputs": [
        {
          "internalType": "string",
          "name": "",
          "type": "string"
        }
      ],
      "stateMutability": "view",
      "type": "function",
      "constant": true
    },
    {
      "inputs": [
        {
          "internalType": "uint256",
          "name": "index",
          "type": "uint256"
        }
      ],
      "name": "tokenByIndex",
      "outputs": [
        {
          "internalType": "uint256",
          "name": "",
          "type": "uint256"
        }
      ],
      "stateMutability": "view",
      "type": "function",
      "constant": true
    },
    {
      "inputs": [
        {
          "internalType": "address",
          "name": "owner",
          "type": "address"
        },
        {
          "internalType": "uint256",
          "name": "index",
          "type": "uint256"
        }
      ],
      "name": "tokenOfOwnerByIndex",
      "outputs": [
        {
          "internalType": "uint256",
          "name": "",
          "type": "uint256"
        }
      ],
      "stateMutability": "view",
      "type": "function",
      "constant": true
    },
    {
      "inputs": [],
      "name": "totalSupply",
      "outputs": [
        {
          "internalType": "uint256",
          "name": "",
          "type": "uint256"
        }
      ],
      "stateMutability": "view",
      "type": "function",
      "constant": true
    },
    {
      "inputs": [
        {
          "internalType": "address",
          "name": "from",
          "type": "address"
        },
        {
          "internalType": "address",
          "name": "to",
          "type": "address"
        },
        {
          "internalType": "uint256",
          "name": "tokenId",
          "type": "uint256"
        }
      ],
      "name": "transferFrom",
      "outputs": [],
      "stateMutability": "nonpayable",
      "type": "function"
    },
    {
      "inputs": [
        {
          "internalType": "address",
          "name": "newOwner",
          "type": "address"
        }
      ],
      "name": "transferOwnership",
      "outputs": [],
      "stateMutability": "nonpayable",
      "type": "function"
    },
    {
      "inputs": [],
      "name": "transfered",
      "outputs": [
        {
          "internalType": "bool",
          "name": "",
          "type": "bool"
        }
      ],
      "stateMutability": "view",
      "type": "function",
      "constant": true
    },
    {
      "stateMutability": "payable",
      "type": "receive",
      "payable": true
    },
    {
      "inputs": [
        {
          "internalType": "string",
          "name": "baseURI_",
          "type": "string"
        }
      ],
      "name": "changeBaseURI",
      "outputs": [],
      "stateMutability": "nonpayable",
      "type": "function"
    },
    {
      "inputs": [
        {
          "internalType": "address",
          "name": "_add",
          "type": "address"
        },
        {
          "internalType": "uint8",
          "name": "_v",
          "type": "uint8"
        },
        {
          "internalType": "bytes32",
          "name": "_r",
          "type": "bytes32"
        },
        {
          "internalType": "bytes32",
          "name": "_s",
          "type": "bytes32"
        }
      ],
      "name": "isValidAccessMessage",
      "outputs": [
        {
          "internalType": "bool",
          "name": "",
          "type": "bool"
        }
      ],
      "stateMutability": "view",
      "type": "function",
      "constant": true
    },
    {
      "inputs": [
        {
          "internalType": "uint256",
          "name": "number",
          "type": "uint256"
        },
        {
          "internalType": "uint8",
          "name": "_v",
          "type": "uint8"
        },
        {
          "internalType": "bytes32",
          "name": "_r",
          "type": "bytes32"
        },
        {
          "internalType": "bytes32",
          "name": "_s",
          "type": "bytes32"
        }
      ],
      "name": "platinumSaleMint",
      "outputs": [],
      "stateMutability": "payable",
      "type": "function",
      "payable": true
    },
    {
      "inputs": [
        {
          "internalType": "uint256",
          "name": "number",
          "type": "uint256"
        },
        {
          "internalType": "uint8",
          "name": "_v",
          "type": "uint8"
        },
        {
          "internalType": "bytes32",
          "name": "_r",
          "type": "bytes32"
        },
        {
          "internalType": "bytes32",
          "name": "_s",
          "type": "bytes32"
        }
      ],
      "name": "presaleMint",
      "outputs": [],
      "stateMutability": "payable",
      "type": "function",
      "payable": true
    },
    {
      "inputs": [
        {
          "internalType": "uint256",
          "name": "number",
          "type": "uint256"
        }
      ],
      "name": "publicSaleMint",
      "outputs": [],
      "stateMutability": "payable",
      "type": "function",
      "payable": true
    },
    {
      "inputs": [
        {
          "internalType": "uint256",
          "name": "tokenId_",
          "type": "uint256"
        }
      ],
      "name": "tokenURI",
      "outputs": [
        {
          "internalType": "string",
          "name": "",
          "type": "string"
        }
      ],
      "stateMutability": "view",
      "type": "function",
      "constant": true
    },
    {
      "inputs": [
        {
          "internalType": "uint256",
          "name": "number",
          "type": "uint256"
        }
      ],
      "name": "reservedMint",
      "outputs": [],
      "stateMutability": "nonpayable",
      "type": "function"
    },
    {
      "inputs": [],
      "name": "openPlatinumSale",
      "outputs": [],
      "stateMutability": "nonpayable",
      "type": "function"
    },
    {
      "inputs": [],
      "name": "openPresale",
      "outputs": [],
      "stateMutability": "nonpayable",
      "type": "function"
    },
    {
      "inputs": [],
      "name": "switchToPublicSale",
      "outputs": [],
      "stateMutability": "nonpayable",
      "type": "function"
    },
    {
      "inputs": [],
      "name": "burnUnmintedTokens",
      "outputs": [],
      "stateMutability": "nonpayable",
      "type": "function"
    },
    {
      "inputs": [],
      "name": "accountBalance",
      "outputs": [
        {
          "internalType": "uint256",
          "name": "",
          "type": "uint256"
        }
      ],
      "stateMutability": "view",
      "type": "function",
      "constant": true
    },
    {
      "inputs": [],
      "name": "reservedMintsLeft",
      "outputs": [
        {
          "internalType": "uint256",
          "name": "",
          "type": "uint256"
        }
      ],
      "stateMutability": "view",
      "type": "function",
      "constant": true
    },
    {
      "inputs": [],
      "name": "withdrawAll",
      "outputs": [],
      "stateMutability": "nonpayable",
      "type": "function"
    },
    {
      "inputs": [],
      "name": "transferToCommunityWallet",
      "outputs": [],
      "stateMutability": "nonpayable",
      "type": "function"
    },
    {
      "inputs": [],
      "name": "maxMintsPerAddress",
      "outputs": [
        {
          "internalType": "uint256",
          "name": "",
          "type": "uint256"
        }
      ],
      "stateMutability": "view",
      "type": "function",
      "constant": true
    },
    {
      "inputs": [],
      "name": "publicSalelaunch",
      "outputs": [
        {
          "internalType": "uint256",
          "name": "",
          "type": "uint256"
        }
      ],
      "stateMutability": "view",
      "type": "function",
      "constant": true
    },
    {
      "inputs": [],
      "name": "presalelaunch",
      "outputs": [
        {
          "internalType": "uint256",
          "name": "",
          "type": "uint256"
        }
      ],
      "stateMutability": "view",
      "type": "function",
      "constant": true
    },
    {
      "inputs": [],
      "name": "saleState",
      "outputs": [
        {
          "internalType": "enum NFT.State",
          "name": "",
          "type": "uint8"
        }
      ],
      "stateMutability": "view",
      "type": "function",
      "constant": true
    },
    {
      "inputs": [],
      "name": "mintCost",
      "outputs": [
        {
          "internalType": "uint256",
          "name": "",
          "type": "uint256"
        }
      ],
      "stateMutability": "view",
      "type": "function",
      "constant": true
    },
    {
      "inputs": [
        {
          "internalType": "uint256",
          "name": "number",
          "type": "uint256"
        }
      ],
      "name": "addTokensPlatinumSale",
      "outputs": [],
      "stateMutability": "nonpayable",
      "type": "function"
    },
    {
      "inputs": [],
      "name": "tokensLeftPlatinumSale",
      "outputs": [
        {
          "internalType": "uint256",
          "name": "",
          "type": "uint256"
        }
      ],
      "stateMutability": "view",
      "type": "function",
      "constant": true
    },
    {
      "inputs": [],
      "name": "tokensLeftPresale",
      "outputs": [
        {
          "internalType": "uint256",
          "name": "",
          "type": "uint256"
        }
      ],
      "stateMutability": "view",
      "type": "function",
      "constant": true
    },
    {
      "inputs": [],
      "name": "platinumSaleIsOpen",
      "outputs": [
        {
          "internalType": "bool",
          "name": "",
          "type": "bool"
        }
      ],
      "stateMutability": "view",
      "type": "function",
      "constant": true
    },
    {
      "inputs": [
        {
          "internalType": "uint256",
          "name": "newPrice",
          "type": "uint256"
        }
      ],
      "name": "changePublicSaleMintPrice",
      "outputs": [],
      "stateMutability": "nonpayable",
      "type": "function"
    }
  ],
  "bytecode": "0x608060405267030d98d59a96000060115567080c92ed51ba0000601255601680546001600160a01b0319167380e4929c869102140e69550bbecc20bed61b080c1790553480156200004f57600080fd5b50604080518082018252601081526f20b8329023b7b934b636309021b63ab160811b60208083019182528351808501909452600384526241474360e81b908401528151919291620000a39160009162000196565b508051620000b990600190602084019062000196565b505050620000d6620000d06200014060201b60201c565b62000144565b612c49600b55610539600c556016600d556000600e819055600f55604080516060810190915260368082526200363460208301398051620001209160109160209091019062000196565b50600060135560456014556016601555601b805460ff1916905562000278565b3390565b600a80546001600160a01b038381166001600160a01b0319831681179093556040519116919082907f8be0079c531659141344cd1fd0a4f28419497f9722a3daafe3b4186f6b6457e090600090a35050565b828054620001a4906200023c565b90600052602060002090601f016020900481019282620001c8576000855562000213565b82601f10620001e357805160ff191683800117855562000213565b8280016001018555821562000213579182015b8281111562000213578251825591602001919060010190620001f6565b506200022192915062000225565b5090565b5b8082111562000221576000815560010162000226565b600181811c908216806200025157607f821691505b6020821081036200027257634e487b7160e01b600052602260045260246000fd5b50919050565b6133ac80620002886000396000f3fe60806040526004361061028c5760003560e01c806370a082311161015a578063b058b615116100c1578063c87b56dd1161007a578063c87b56dd14610735578063dcd4e73214610755578063e39433a114610768578063e985e9c51461077d578063f2fde38b146107c6578063ff984994146107e657600080fd5b8063b058b6151461069f578063b0a1c1c4146106b2578063b3ab66b0146106c5578063b88d4fde146106d8578063bdb4b848146106f8578063c75748391461070d57600080fd5b80638dd98312116101135780638dd983121461061157806395d89b41146106265780639e6be7ee1461063b578063a22cb46514610650578063a475b5dd14610670578063ae6a80d51461068a57600080fd5b806370a0823114610569578063715018a614610589578063853828b61461059e578063871350f3146105b35780638c74bf0e146105d35780638da5cb5b146105f357600080fd5b806337cb7b20116101fe578063603f4d52116101b7578063603f4d52146104c85780636352211e146104ea57806364ef533b1461050a57806366c052901461051f5780636783c4aa1461053457806369af59871461055457600080fd5b806337cb7b2014610429578063384253791461043e57806339a0c6f91461045357806342842e0e146104735780634520e916146104935780634f6ccce7146104a857600080fd5b806323b872dd1161025057806323b872dd146103685780632d3c52a5146103885780632f745c59146103a7578063301702f3146103c75780633023eba6146103dc578063326241141461040957600080fd5b806301ffc9a71461029857806306fdde03146102cd578063081812fc146102ef578063095ea7b31461032757806318160ddd1461034957600080fd5b3661029357005b600080fd5b3480156102a457600080fd5b506102b86102b3366004612c99565b6107fb565b60405190151581526020015b60405180910390f35b3480156102d957600080fd5b506102e2610826565b6040516102c49190612d0e565b3480156102fb57600080fd5b5061030f61030a366004612d21565b6108b8565b6040516001600160a01b0390911681526020016102c4565b34801561033357600080fd5b50610347610342366004612d56565b610952565b005b34801561035557600080fd5b506008545b6040519081526020016102c4565b34801561037457600080fd5b50610347610383366004612d80565b610a67565b34801561039457600080fd5b50601b546102b890610100900460ff1681565b3480156103b357600080fd5b5061035a6103c2366004612d56565b610a98565b3480156103d357600080fd5b5061035a610b2e565b3480156103e857600080fd5b5061035a6103f7366004612dbc565b60176020526000908152604090205481565b34801561041557600080fd5b506102b8610424366004612de8565b610b89565b34801561043557600080fd5b506102b8610c95565b34801561044a57600080fd5b5061035a610cad565b34801561045f57600080fd5b5061034761046e366004612eb6565b610cc4565b34801561047f57600080fd5b5061034761048e366004612d80565b610d05565b34801561049f57600080fd5b5061035a610d20565b3480156104b457600080fd5b5061035a6104c3366004612d21565b610d32565b3480156104d457600080fd5b506104dd610dc5565b6040516102c49190612f15565b3480156104f657600080fd5b5061030f610505366004612d21565b610ded565b34801561051657600080fd5b5061035a610e64565b34801561052b57600080fd5b50610347610e76565b34801561054057600080fd5b5061034761054f366004612d21565b610fb1565b34801561056057600080fd5b5061034761106d565b34801561057557600080fd5b5061035a610584366004612dbc565b6110ed565b34801561059557600080fd5b50610347611174565b3480156105aa57600080fd5b506103476111aa565b3480156105bf57600080fd5b506103476105ce366004612d21565b611240565b3480156105df57600080fd5b506103476105ee366004612d21565b6112b4565b3480156105ff57600080fd5b50600a546001600160a01b031661030f565b34801561061d57600080fd5b50610347611433565b34801561063257600080fd5b506102e26114cb565b34801561064757600080fd5b506103476114da565b34801561065c57600080fd5b5061034761066b366004612f3d565b611526565b34801561067c57600080fd5b50601b546102b89060ff1681565b34801561069657600080fd5b5060155461035a565b6103476106ad366004612f79565b611531565b3480156106be57600080fd5b504761035a565b6103476106d3366004612d21565b611824565b3480156106e457600080fd5b506103476106f3366004612f9f565b611a33565b34801561070457600080fd5b5061035a611a6b565b34801561071957600080fd5b5061030f739216879a3fbb0fdfbef5931a59319b9430d8bdaf81565b34801561074157600080fd5b506102e2610750366004612d21565b611ac2565b610347610763366004612f79565b611b9d565b34801561077457600080fd5b5061035a611dfd565b34801561078957600080fd5b506102b861079836600461301b565b6001600160a01b03918216600090815260056020908152604080832093909416825291909152205460ff1690565b3480156107d257600080fd5b506103476107e1366004612dbc565b611e58565b3480156107f257600080fd5b50610347611ef0565b60006001600160e01b0319821663780e9d6360e01b1480610820575061082082611ff0565b92915050565b6060600080546108359061304e565b80601f01602080910402602001604051908101604052809291908181526020018280546108619061304e565b80156108ae5780601f10610883576101008083540402835291602001916108ae565b820191906000526020600020905b81548152906001019060200180831161089157829003601f168201915b5050505050905090565b6000818152600260205260408120546001600160a01b03166109365760405162461bcd60e51b815260206004820152602c60248201527f4552433732313a20617070726f76656420717565727920666f72206e6f6e657860448201526b34b9ba32b73a103a37b5b2b760a11b60648201526084015b60405180910390fd5b506000908152600460205260409020546001600160a01b031690565b600061095d82610ded565b9050806001600160a01b0316836001600160a01b0316036109ca5760405162461bcd60e51b815260206004820152602160248201527f4552433732313a20617070726f76616c20746f2063757272656e74206f776e656044820152603960f91b606482015260840161092d565b336001600160a01b03821614806109e657506109e68133610798565b610a585760405162461bcd60e51b815260206004820152603860248201527f4552433732313a20617070726f76652063616c6c6572206973206e6f74206f7760448201527f6e6572206e6f7220617070726f76656420666f7220616c6c0000000000000000606482015260840161092d565b610a628383612040565b505050565b610a7133826120ae565b610a8d5760405162461bcd60e51b815260040161092d90613088565b610a628383836121a1565b6000610aa3836110ed565b8210610b055760405162461bcd60e51b815260206004820152602b60248201527f455243373231456e756d657261626c653a206f776e657220696e646578206f7560448201526a74206f6620626f756e647360a81b606482015260840161092d565b506001600160a01b03919091166000908152600660209081526040808320938352929052205490565b6000601854600003610b825760405162461bcd60e51b815260206004820152601b60248201527f50726573616c6520686173206e6f74206f70656e656420796574210000000000604482015260640161092d565b5060185490565b6040516bffffffffffffffffffffffff1930606090811b8216602084015286901b1660348201526000908190604801604051602081830303815290604052805190602001209050600181604051602001610c0f91907f19457468657265756d205369676e6564204d6573736167653a0a3332000000008152601c810191909152603c0190565b60408051601f198184030181528282528051602091820120600084529083018083525260ff881690820152606081018690526080810185905260a0016020604051602081039080840390855afa158015610c6d573d6000803e3d6000fd5b5050604051601f1901516016546001600160a01b03908116911614925050505b949350505050565b6000601a54600003610ca75750600090565b50600190565b6000600f54600d54610cbf91906130ef565b905090565b600a546001600160a01b03163314610cee5760405162461bcd60e51b815260040161092d90613106565b8051610d01906010906020840190612bf3565b5050565b610a6283838360405180602001604052806000815250611a33565b6000601354601454610cbf91906130ef565b6000610d3d60085490565b8210610da05760405162461bcd60e51b815260206004820152602c60248201527f455243373231456e756d657261626c653a20676c6f62616c20696e646578206f60448201526b7574206f6620626f756e647360a01b606482015260840161092d565b60088281548110610db357610db361313b565b90600052602060002001549050919050565b6000601854600003610dd75750600090565b601954600003610de75750600190565b50600290565b6000818152600260205260408120546001600160a01b0316806108205760405162461bcd60e51b815260206004820152602960248201527f4552433732313a206f776e657220717565727920666f72206e6f6e657869737460448201526832b73a103a37b5b2b760b91b606482015260840161092d565b6000600e54600c54610cbf91906130ef565b600a546001600160a01b03163314610ea05760405162461bcd60e51b815260040161092d90613106565b601b544790610100900460ff1615610f065760405162461bcd60e51b815260206004820152602360248201527f46756e6374696f6e2068617320616c7265616479206265656e2065786563757460448201526265642160e81b606482015260840161092d565b6812f939c99edab80000811015610f785760405162461bcd60e51b815260206004820152603060248201527f42616c616e6365206d75737420626520657175616c20746f206f72206772656160448201526f0e8cae440e8d0c2dc40666a6040cae8d60831b606482015260840161092d565b610f9f739216879a3fbb0fdfbef5931a59319b9430d8bdaf6812f939c99edab80000612348565b50601b805461ff001916610100179055565b600a546001600160a01b03163314610fdb5760405162461bcd60e51b815260040161092d90613106565b6107d081600d54610fec9190613151565b11156110535760405162461bcd60e51b815260206004820152603060248201527f457863656564656420746865204d617820416d6f756e7420283230303029206960448201526f6e20506c6174696e756d2053616c652160801b606482015260840161092d565b80600d60008282546110659190613151565b909155505050565b600a546001600160a01b031633146110975760405162461bcd60e51b815260040161092d90613106565b601a54156110e75760405162461bcd60e51b815260206004820152601e60248201527f506c6174696e756d2053616c6520697320616c7265616479206f70656e210000604482015260640161092d565b42601a55565b60006001600160a01b0382166111585760405162461bcd60e51b815260206004820152602a60248201527f4552433732313a2062616c616e636520717565727920666f7220746865207a65604482015269726f206164647265737360b01b606482015260840161092d565b506001600160a01b031660009081526003602052604090205490565b600a546001600160a01b0316331461119e5760405162461bcd60e51b815260040161092d90613106565b6111a860006123e2565b565b600a546001600160a01b031633146111d45760405162461bcd60e51b815260040161092d90613106565b47806112225760405162461bcd60e51b815260206004820152601e60248201527f42616c616e6365206d7573742062652067726561746572207468616e20300000604482015260640161092d565b61123d611237600a546001600160a01b031690565b82612348565b50565b600a546001600160a01b0316331461126a5760405162461bcd60e51b815260040161092d90613106565b600081116112af5760405162461bcd60e51b815260206004820152601260248201527150726963652063616e6e6f7420626520302160701b604482015260640161092d565b601255565b600a546001600160a01b031633146112de5760405162461bcd60e51b815260040161092d90613106565b600b54816112eb60085490565b6112f59190613151565b111561133c5760405162461bcd60e51b815260206004820152601660248201527527379027232a39903632b33a103a379036b4b73a171760511b604482015260640161092d565b6014548160135461134d9190613151565b11156113b75760405162461bcd60e51b815260206004820152603360248201527f4e6f7420656e6f756768205265736572766564204e46547320666f722043726560448201527230ba37b9103632b33a103a379036b4b73a171760691b606482015260840161092d565b60005b81811015610d0157600060135460016113d39190613151565b90506113df3382612434565b3360009081526017602052604081208054600192906113ff908490613151565b925050819055506001601360008282546114199190613151565b9091555082915061142b905081613169565b9150506113ba565b600a546001600160a01b0316331461145d5760405162461bcd60e51b815260040161092d90613106565b6000611467610dc5565b600281111561147857611478612eff565b146114c55760405162461bcd60e51b815260206004820152601860248201527f53616c652068617320616c7265616479206f70656e6564210000000000000000604482015260640161092d565b42601855565b6060600180546108359061304e565b600a546001600160a01b031633146115045760405162461bcd60e51b815260040161092d90613106565b600061150f60085490565b600b819055600c5490915081101561123d57600c55565b610d0133838361244e565b82828261154033848484610b89565b6115805760405162461bcd60e51b8152602060048201526011602482015270496e76616c6964205369676e617475726560781b604482015260640161092d565b601a546000036115d25760405162461bcd60e51b815260206004820152601a60248201527f506c6174696e756d2073616c65206973206e6f74206f70656e21000000000000604482015260640161092d565b60026115dc610dc5565b60028111156115ed576115ed612eff565b0361163a5760405162461bcd60e51b815260206004820152601960248201527f506c6174696e756d2073616c652068617320636c6f7365642100000000000000604482015260640161092d565b60135460145461164a91906130ef565b600b5461165791906130ef565b8761166160085490565b61166b9190613151565b11156116b95760405162461bcd60e51b815260206004820152601e60248201527f4e6f7420656e6f756768204e465473206c65667420746f206d696e742e2e0000604482015260640161092d565b600d5487600f546116ca9190613151565b11156117305760405162461bcd60e51b815260206004820152602f60248201527f4e6f7420656e6f756768204e465473206c65667420746f206d696e7420696e2060448201526e283630ba34b73ab69029b0b632971760891b606482015260840161092d565b6015543360009081526017602052604090205461174e908990613151565b111561176c5760405162461bcd60e51b815260040161092d90613182565b611774611a6b565b61177e90886131c7565b34101561179d5760405162461bcd60e51b815260040161092d906131e6565b60005b878110156118125760006117b261251c565b90506117be3382612434565b3360009081526017602052604081208054600192906117de908490613151565b925050819055506001600f60008282546117f89190613151565b9091555082915061180a905081613169565b9150506117a0565b5061181b612546565b50505050505050565b600061182e610dc5565b600281111561183f5761183f612eff565b036118845760405162461bcd60e51b815260206004820152601560248201527453616c6520696e206e6f74206f70656e207965742160581b604482015260640161092d565b600261188e610dc5565b600281111561189f5761189f612eff565b146118ec5760405162461bcd60e51b815260206004820152601c60248201527f5075626c69632053616c6520696e206e6f74206f70656e207965742100000000604482015260640161092d565b6013546014546118fc91906130ef565b600b5461190991906130ef565b8161191360085490565b61191d9190613151565b111561196b5760405162461bcd60e51b815260206004820152601e60248201527f4e6f7420656e6f756768204e465473206c65667420746f206d696e742e2e0000604482015260640161092d565b60155433600090815260176020526040902054611989908390613151565b11156119a75760405162461bcd60e51b815260040161092d90613182565b6119af611a6b565b6119b990826131c7565b3410156119d85760405162461bcd60e51b815260040161092d906131e6565b60005b81811015610d015760006119ed61251c565b90506119f93382612434565b336000908152601760205260408120805460019290611a19908490613151565b90915550829150611a2b905081613169565b9150506119db565b611a3d33836120ae565b611a595760405162461bcd60e51b815260040161092d90613088565b611a65848484846125e9565b50505050565b600080611a76610dc5565b90506000816002811115611a8c57611a8c612eff565b1480611aa957506001816002811115611aa757611aa7612eff565b145b15611ab657505060115490565b505060125490565b5090565b6000818152600260205260409020546060906001600160a01b0316611b415760405162461bcd60e51b815260206004820152602f60248201527f4552433732314d657461646174613a2055524920717565727920666f72206e6f60448201526e3732bc34b9ba32b73a103a37b5b2b760891b606482015260840161092d565b6000611b4b61261c565b90506000815111611b6b5760405180602001604052806000815250611b96565b80611b758461262b565b604051602001611b86929190613237565b6040516020818303038152906040525b9392505050565b828282611bac33848484610b89565b611bec5760405162461bcd60e51b8152602060048201526011602482015270496e76616c6964205369676e617475726560781b604482015260640161092d565b6000611bf6610dc5565b6002811115611c0757611c07612eff565b03611c4c5760405162461bcd60e51b815260206004820152601560248201527453616c6520696e206e6f74206f70656e207965742160581b604482015260640161092d565b6002611c56610dc5565b6002811115611c6757611c67612eff565b03611caa5760405162461bcd60e51b815260206004820152601360248201527250726573616c652068617320636c6f7365642160681b604482015260640161092d565b600c5487600e54611cbb9190613151565b1115611d1b5760405162461bcd60e51b815260206004820152602960248201527f4e6f7420656e6f756768204e465473206c65667420746f206d696e7420696e20604482015268283932b9b0b632971760b91b606482015260840161092d565b60155433600090815260176020526040902054611d39908990613151565b1115611d575760405162461bcd60e51b815260040161092d90613182565b611d5f611a6b565b611d6990886131c7565b341015611d885760405162461bcd60e51b815260040161092d906131e6565b60005b87811015611812576000611d9d61251c565b9050611da93382612434565b336000908152601760205260408120805460019290611dc9908490613151565b925050819055506001600e6000828254611de39190613151565b90915550829150611df5905081613169565b915050611d8b565b6000601954600003611e515760405162461bcd60e51b815260206004820152601f60248201527f5075626c69632053616c6520686173206e6f74206f70656e6564207965742100604482015260640161092d565b5060195490565b600a546001600160a01b03163314611e825760405162461bcd60e51b815260040161092d90613106565b6001600160a01b038116611ee75760405162461bcd60e51b815260206004820152602660248201527f4f776e61626c653a206e6577206f776e657220697320746865207a65726f206160448201526564647265737360d01b606482015260840161092d565b61123d816123e2565b600a546001600160a01b03163314611f1a5760405162461bcd60e51b815260040161092d90613106565b6002611f24610dc5565b6002811115611f3557611f35612eff565b03611f825760405162461bcd60e51b815260206004820152601760248201527f416c726561647920696e205075626c69632053616c6521000000000000000000604482015260640161092d565b6001611f8c610dc5565b6002811115611f9d57611f9d612eff565b14611fea5760405162461bcd60e51b815260206004820152601860248201527f53616c6520686173206e6f74206f70656e656420796574210000000000000000604482015260640161092d565b42601955565b60006001600160e01b031982166380ac58cd60e01b148061202157506001600160e01b03198216635b5e139f60e01b145b8061082057506301ffc9a760e01b6001600160e01b0319831614610820565b600081815260046020526040902080546001600160a01b0319166001600160a01b038416908117909155819061207582610ded565b6001600160a01b03167f8c5be1e5ebec7d5bd14f71427d1e84f3dd0314c0f7b2291e5b200ac8c7c3b92560405160405180910390a45050565b6000818152600260205260408120546001600160a01b03166121275760405162461bcd60e51b815260206004820152602c60248201527f4552433732313a206f70657261746f7220717565727920666f72206e6f6e657860448201526b34b9ba32b73a103a37b5b2b760a11b606482015260840161092d565b600061213283610ded565b9050806001600160a01b0316846001600160a01b0316148061216d5750836001600160a01b0316612162846108b8565b6001600160a01b0316145b80610c8d57506001600160a01b0380821660009081526005602090815260408083209388168352929052205460ff16610c8d565b826001600160a01b03166121b482610ded565b6001600160a01b0316146122185760405162461bcd60e51b815260206004820152602560248201527f4552433732313a207472616e736665722066726f6d20696e636f72726563742060448201526437bbb732b960d91b606482015260840161092d565b6001600160a01b03821661227a5760405162461bcd60e51b8152602060048201526024808201527f4552433732313a207472616e7366657220746f20746865207a65726f206164646044820152637265737360e01b606482015260840161092d565b61228583838361272c565b612290600082612040565b6001600160a01b03831660009081526003602052604081208054600192906122b99084906130ef565b90915550506001600160a01b03821660009081526003602052604081208054600192906122e7908490613151565b909155505060008181526002602052604080822080546001600160a01b0319166001600160a01b0386811691821790925591518493918716917fddf252ad1be2c89b69c2b068fc378daa952ba7f163c4a11628f55a4df523b3ef91a4505050565b6000826001600160a01b03168260405160006040518083038185875af1925050503d8060008114612395576040519150601f19603f3d011682016040523d82523d6000602084013e61239a565b606091505b5050905080610a625760405162461bcd60e51b81526020600482015260146024820152732330b4b632b2103a379039b2b7321022ba3432b960611b604482015260640161092d565b600a80546001600160a01b038381166001600160a01b0319831681179093556040519116919082907f8be0079c531659141344cd1fd0a4f28419497f9722a3daafe3b4186f6b6457e090600090a35050565b610d018282604051806020016040528060008152506127e4565b816001600160a01b0316836001600160a01b0316036124af5760405162461bcd60e51b815260206004820152601960248201527f4552433732313a20617070726f766520746f2063616c6c657200000000000000604482015260640161092d565b6001600160a01b03838116600081815260056020908152604080832094871680845294825291829020805460ff191686151590811790915591519182527f17307eab39ab6107e8899845ad3d59bd9653f200f220920489ca2b5937696c31910160405180910390a3505050565b600060135460145461252e91906130ef565b60085461253c906001613151565b610cbf9190613151565b604051600090739216879a3fbb0fdfbef5931a59319b9430d8bdaf9034908381818185875af1925050503d806000811461259c576040519150601f19603f3d011682016040523d82523d6000602084013e6125a1565b606091505b505090508061123d5760405162461bcd60e51b81526020600482015260146024820152732330b4b632b2103a379039b2b7321022ba3432b960611b604482015260640161092d565b6125f48484846121a1565b61260084848484612817565b611a655760405162461bcd60e51b815260040161092d90613276565b6060601080546108359061304e565b6060816000036126525750506040805180820190915260018152600360fc1b602082015290565b8160005b811561267c578061266681613169565b91506126759050600a836132de565b9150612656565b60008167ffffffffffffffff81111561269757612697612e2a565b6040519080825280601f01601f1916602001820160405280156126c1576020820181803683370190505b5090505b8415610c8d576126d66001836130ef565b91506126e3600a866132f2565b6126ee906030613151565b60f81b8183815181106127035761270361313b565b60200101906001600160f81b031916908160001a905350612725600a866132de565b94506126c5565b6001600160a01b0383166127875761278281600880546000838152600960205260408120829055600182018355919091527ff3f7a9fe364faab93b216da50a3214154f22a0a2b415b23a84c8169e8b636ee30155565b6127aa565b816001600160a01b0316836001600160a01b0316146127aa576127aa8382612915565b6001600160a01b0382166127c157610a62816129b2565b826001600160a01b0316826001600160a01b031614610a6257610a628282612a61565b6127ee8383612aa5565b6127fb6000848484612817565b610a625760405162461bcd60e51b815260040161092d90613276565b60006001600160a01b0384163b1561290d57604051630a85bd0160e11b81526001600160a01b0385169063150b7a029061285b903390899088908890600401613306565b6020604051808303816000875af1925050508015612896575060408051601f3d908101601f1916820190925261289391810190613343565b60015b6128f3573d8080156128c4576040519150601f19603f3d011682016040523d82523d6000602084013e6128c9565b606091505b5080516000036128eb5760405162461bcd60e51b815260040161092d90613276565b805181602001fd5b6001600160e01b031916630a85bd0160e11b149050610c8d565b506001610c8d565b60006001612922846110ed565b61292c91906130ef565b60008381526007602052604090205490915080821461297f576001600160a01b03841660009081526006602090815260408083208584528252808320548484528184208190558352600790915290208190555b5060009182526007602090815260408084208490556001600160a01b039094168352600681528383209183525290812055565b6008546000906129c4906001906130ef565b600083815260096020526040812054600880549394509092849081106129ec576129ec61313b565b906000526020600020015490508060088381548110612a0d57612a0d61313b565b6000918252602080832090910192909255828152600990915260408082208490558582528120556008805480612a4557612a45613360565b6001900381819060005260206000200160009055905550505050565b6000612a6c836110ed565b6001600160a01b039093166000908152600660209081526040808320868452825280832085905593825260079052919091209190915550565b6001600160a01b038216612afb5760405162461bcd60e51b815260206004820181905260248201527f4552433732313a206d696e7420746f20746865207a65726f2061646472657373604482015260640161092d565b6000818152600260205260409020546001600160a01b031615612b605760405162461bcd60e51b815260206004820152601c60248201527f4552433732313a20746f6b656e20616c7265616479206d696e74656400000000604482015260640161092d565b612b6c6000838361272c565b6001600160a01b0382166000908152600360205260408120805460019290612b95908490613151565b909155505060008181526002602052604080822080546001600160a01b0319166001600160a01b03861690811790915590518392907fddf252ad1be2c89b69c2b068fc378daa952ba7f163c4a11628f55a4df523b3ef908290a45050565b828054612bff9061304e565b90600052602060002090601f016020900481019282612c215760008555612c67565b82601f10612c3a57805160ff1916838001178555612c67565b82800160010185558215612c67579182015b82811115612c67578251825591602001919060010190612c4c565b50611abe9291505b80821115611abe5760008155600101612c6f565b6001600160e01b03198116811461123d57600080fd5b600060208284031215612cab57600080fd5b8135611b9681612c83565b60005b83811015612cd1578181015183820152602001612cb9565b83811115611a655750506000910152565b60008151808452612cfa816020860160208601612cb6565b601f01601f19169290920160200192915050565b602081526000611b966020830184612ce2565b600060208284031215612d3357600080fd5b5035919050565b80356001600160a01b0381168114612d5157600080fd5b919050565b60008060408385031215612d6957600080fd5b612d7283612d3a565b946020939093013593505050565b600080600060608486031215612d9557600080fd5b612d9e84612d3a565b9250612dac60208501612d3a565b9150604084013590509250925092565b600060208284031215612dce57600080fd5b611b9682612d3a565b803560ff81168114612d5157600080fd5b60008060008060808587031215612dfe57600080fd5b612e0785612d3a565b9350612e1560208601612dd7565b93969395505050506040820135916060013590565b634e487b7160e01b600052604160045260246000fd5b600067ffffffffffffffff80841115612e5b57612e5b612e2a565b604051601f8501601f19908116603f01168101908282118183101715612e8357612e83612e2a565b81604052809350858152868686011115612e9c57600080fd5b858560208301376000602087830101525050509392505050565b600060208284031215612ec857600080fd5b813567ffffffffffffffff811115612edf57600080fd5b8201601f81018413612ef057600080fd5b610c8d84823560208401612e40565b634e487b7160e01b600052602160045260246000fd5b6020810160038310612f3757634e487b7160e01b600052602160045260246000fd5b91905290565b60008060408385031215612f5057600080fd5b612f5983612d3a565b915060208301358015158114612f6e57600080fd5b809150509250929050565b60008060008060808587031215612f8f57600080fd5b84359350612e1560208601612dd7565b60008060008060808587031215612fb557600080fd5b612fbe85612d3a565b9350612fcc60208601612d3a565b925060408501359150606085013567ffffffffffffffff811115612fef57600080fd5b8501601f8101871361300057600080fd5b61300f87823560208401612e40565b91505092959194509250565b6000806040838503121561302e57600080fd5b61303783612d3a565b915061304560208401612d3a565b90509250929050565b600181811c9082168061306257607f821691505b60208210810361308257634e487b7160e01b600052602260045260246000fd5b50919050565b60208082526031908201527f4552433732313a207472616e736665722063616c6c6572206973206e6f74206f6040820152701ddb995c881b9bdc88185c1c1c9bdd9959607a1b606082015260800190565b634e487b7160e01b600052601160045260246000fd5b600082821015613101576131016130d9565b500390565b6020808252818101527f4f776e61626c653a2063616c6c6572206973206e6f7420746865206f776e6572604082015260600190565b634e487b7160e01b600052603260045260246000fd5b60008219821115613164576131646130d9565b500190565b60006001820161317b5761317b6130d9565b5060010190565b60208082526025908201527f4f6e6c79203232204d696e74732061726520616c6c6f77656420706572204164604082015264647265737360d81b606082015260800190565b60008160001904831182151516156131e1576131e16130d9565b500290565b60208082526031908201527f496e73756666696369656e742046756e647320746f206d696e742074686973206040820152706e756d626572206f6620546f6b656e732160781b606082015260800190565b60008351613249818460208801612cb6565b83519083019061325d818360208801612cb6565b64173539b7b760d91b9101908152600501949350505050565b60208082526032908201527f4552433732313a207472616e7366657220746f206e6f6e20455243373231526560408201527131b2b4bb32b91034b6b83632b6b2b73a32b960711b606082015260800190565b634e487b7160e01b600052601260045260246000fd5b6000826132ed576132ed6132c8565b500490565b600082613301576133016132c8565b500690565b6001600160a01b038581168252841660208201526040810183905260806060820181905260009061333990830184612ce2565b9695505050505050565b60006020828403121561335557600080fd5b8151611b9681612c83565b634e487b7160e01b600052603160045260246000fdfea264697066735822122032b34f2e76829d97eeb5646fdf3678185d72d77a7116a9d304dda71c6de2f5cc64736f6c634300080d0033697066733a2f2f516d586d6e58467a44594673614a613567666279535359634862794b57467354694b59346e45564d4d376b3236362f",
  "immutableReferences": {},
  "source": "// SPDX-License-Identifier: MIT\r\npragma solidity ^0.8.0;\r\nimport \"@openzeppelin/contracts/access/Ownable.sol\";\r\nimport \"@openzeppelin/contracts/token/ERC721/extensions/ERC721Enumerable.sol\";\r\n\r\ncontract NFT is ERC721Enumerable, Ownable {\r\n    using Strings for uint256;\r\n\r\n    //declares the maximum amount of tokens that can be minted, total and in presale\r\n    uint256 private maxTotalTokens;\r\n    //declares the amount of tokens able to be sold in presale\r\n    uint256 private maxTokensPresale;\r\n    //declares the amount of tokens able to be sold in platinum sale\r\n    uint256 private maxTokensPlatinumSale;\r\n    \r\n\r\n    //stores the amiunt of tokens that have been minted in presale\r\n    uint256 private numberOfTokensPresale;\r\n    //stores the amiunt of tokens that have been minted in platinum\r\n    uint256 private numberOfTokensPlatinumSale;\r\n    \r\n    //initial part of the URI for the metadata\r\n    string private _currentBaseURI;\r\n        \r\n    //cost of mints depending on state of sale    \r\n    uint private mintCostPresale = 0.22 ether;\r\n    uint private mintCostPublicSale = 0.58 ether;\r\n    \r\n    //the amount of reserved mints that have currently been executed by creator and by marketing wallet\r\n    uint private _reservedMints;\r\n    //the maximum amount of reserved mints allowed for creator and marketing wallet\r\n    uint private maxReservedMints;\r\n    \r\n    //number of mints an address can have maxmimum\r\n    uint private maxMints;\r\n    \r\n    address public constant communityWallet = 0x9216879A3fBB0fdFbEF5931A59319B9430d8BDaF; \r\n    \r\n    //dummy address that we use to sign the mint transaction to make sure it is valid\r\n    address private dummy = 0x80E4929c869102140E69550BBECC20bEd61B080c; //for platinum sale\r\n\r\n    //amount of mints that each address has executed\r\n    mapping(address => uint256) public mintsPerAddress;\r\n    \r\n    //current state os sale\r\n    enum State {NoSale, Presale, PublicSale}\r\n    \r\n    //the timestamp of when presale opens\r\n    uint256 private presaleLaunchTime;\r\n    //the timestamp of when public sale opens\r\n    uint256 private publicSaleLaunchTime;\r\n    //the timestamp of when platinum sale opens\r\n    uint256 private platinumSaleLaunchTime;\r\n\r\n    //to see if all NFTs have been revealed yet or not\r\n    bool public reveal;\r\n\r\n    //see if 700 eth has been trasnfered to community wallet\r\n    bool public transfered;\r\n        \r\n    //declaring initial values for variables\r\n    constructor() ERC721('Ape Gorilla Club', 'AGC') {\r\n        //max number of NFTs that will be minted\r\n        maxTotalTokens = 11337;\r\n        //limit for presale\r\n        maxTokensPresale = 1337;\r\n        //limit for platinum sale\r\n        maxTokensPlatinumSale = 22; //initial value of 22 and owner will be allowed to release more as we go\r\n\r\n        //initially no tokens have been minted in Presale\r\n        numberOfTokensPresale = 0;\r\n        //initially no tokens have been minted in Platinum Sale\r\n        numberOfTokensPlatinumSale = 0;\r\n\r\n        //URI of the placeholder image and metadata that will show before the collection has been revealed\r\n        _currentBaseURI = 'ipfs://QmXmnXFzDYFsaJa5gfbySSYcHbyKWFsTiKY4nEVMM7k266/';\r\n        \r\n        //initially we have minted 0 of the reserved mints\r\n        _reservedMints = 0;\r\n        //the max number of reserved mints for team/giveaway/marketing will be 69\r\n        maxReservedMints = 69;\r\n\r\n        //setting the amount of maxMints per person\r\n        maxMints = 22;\r\n\r\n        //initially the NFTs are not revealed \r\n        reveal = false;\r\n        \r\n    }\r\n    \r\n    //in case somebody accidentaly sends funds or transaction to contract\r\n    receive() payable external {}\r\n    \r\n    //visualize baseURI\r\n    function _baseURI() internal view virtual override returns (string memory) {\r\n        return _currentBaseURI;\r\n    }\r\n    \r\n    //change baseURI in case needed for IPFS\r\n    function changeBaseURI(string memory baseURI_) external onlyOwner {\r\n        _currentBaseURI = baseURI_;\r\n    }\r\n    \r\n    //gets the tokenID of NFT to be minted\r\n    function tokenId() internal view returns(uint256) {\r\n        return totalSupply() + 1 + (maxReservedMints - _reservedMints);\r\n    }\r\n    \r\n    modifier onlyValidAccess(uint8 _v, bytes32 _r, bytes32 _s) {\r\n        require( isValidAccessMessage(msg.sender,_v,_r,_s), 'Invalid Signature' );\r\n        _;\r\n    }\r\n \r\n    /* \r\n    * @dev Verifies if message was signed by owner to give access to _add for this contract.\r\n    *      Assumes Geth signature prefix.\r\n    * @param _add Address of agent with access\r\n    * @param _v ECDSA signature parameter v.\r\n    * @param _r ECDSA signature parameters r.\r\n    * @param _s ECDSA signature parameters s.\r\n    * @return Validity of access message for a given address.\r\n    */\r\n    function isValidAccessMessage(address _add, uint8 _v, bytes32 _r, bytes32 _s) view public returns (bool) {\r\n        bytes32 hash = keccak256(abi.encodePacked(address(this), _add));\r\n        return dummy == ecrecover(keccak256(abi.encodePacked(\"\\x19Ethereum Signed Message:\\n32\", hash)), _v, _r, _s);\r\n        \r\n    }\r\n\r\n    //mint a @param number of NFTs\r\n    //@param _v ECDSA signature parameter v.\r\n    //@param _r ECDSA signature parameters r.\r\n    //@param _s ECDSA signature parameters s.\r\n    //same as presale but for exclusive members\r\n    function platinumSaleMint(uint256 number, uint8 _v, bytes32 _r, bytes32 _s) onlyValidAccess(_v,  _r, _s) external payable {\r\n        require(platinumSaleLaunchTime != 0, \"Platinum sale is not open!\");\r\n        require(saleState() != State.PublicSale, \"Platinum sale has closed!\");\r\n        require(totalSupply() + number <= maxTotalTokens - (maxReservedMints -  _reservedMints), \"Not enough NFTs left to mint..\");\r\n        require(numberOfTokensPlatinumSale + number <= maxTokensPlatinumSale, \"Not enough NFTs left to mint in Platinum Sale..\");\r\n        require(mintsPerAddress[msg.sender] + number <= maxMints, \"Only 22 Mints are allowed per Address\");\r\n        require(msg.value >= number * mintCost(), \"Insufficient Funds to mint this number of Tokens!\");\r\n        \r\n        /*\r\n        //function to blacklist bots\r\n        if (block.timestamp == saleLaunchTime) {\r\n            blacklist[msg.sender] = true;\r\n        }\r\n        */\r\n        \r\n        for (uint256 i = 0; i < number; i++) {\r\n            uint256 tid = tokenId();\r\n            _safeMint(msg.sender, tid);\r\n            mintsPerAddress[msg.sender] += 1;\r\n            numberOfTokensPlatinumSale += 1;\r\n        }\r\n\r\n        sendToCommunityWallet();\r\n\r\n    }\r\n    \r\n    //mint a @param number of NFTs\r\n    function presaleMint(uint256 number, uint8 _v, bytes32 _r, bytes32 _s) onlyValidAccess(_v,  _r, _s) external payable {\r\n        require(saleState() != State.NoSale, \"Sale in not open yet!\");\r\n        require(saleState() != State.PublicSale, \"Presale has closed!\");\r\n        require(numberOfTokensPresale + number <= maxTokensPresale, \"Not enough NFTs left to mint in Presale..\");\r\n        require(mintsPerAddress[msg.sender] + number <= maxMints, \"Only 22 Mints are allowed per Address\");\r\n        require(msg.value >= number * mintCost(), \"Insufficient Funds to mint this number of Tokens!\");\r\n        \r\n        /*\r\n        //function to blacklist bots\r\n        if (block.timestamp == saleLaunchTime) {\r\n            blacklist[msg.sender] = true;\r\n        }\r\n        */\r\n        \r\n        for (uint256 i = 0; i < number; i++) {\r\n            uint256 tid = tokenId();\r\n            _safeMint(msg.sender, tid);\r\n            mintsPerAddress[msg.sender] += 1;\r\n            numberOfTokensPresale += 1;\r\n        }\r\n\r\n        sendToCommunityWallet();\r\n\r\n    }\r\n\r\n    function publicSaleMint(uint256 number) external payable {\r\n        require(saleState() != State.NoSale, \"Sale in not open yet!\");\r\n        require(saleState() == State.PublicSale, \"Public Sale in not open yet!\");\r\n        require(totalSupply() + number <= maxTotalTokens - (maxReservedMints -  _reservedMints), \"Not enough NFTs left to mint..\");\r\n        require(mintsPerAddress[msg.sender] + number <= maxMints, \"Only 22 Mints are allowed per Address\");\r\n        require(msg.value >= number * mintCost(), \"Insufficient Funds to mint this number of Tokens!\");\r\n        \r\n        /*\r\n        //function to blacklist bots\r\n        if (block.timestamp == saleLaunchTime) {\r\n            blacklist[msg.sender] = true;\r\n        }\r\n        */\r\n        \r\n        for (uint256 i = 0; i < number; i++) {\r\n            uint256 tid = tokenId();\r\n            _safeMint(msg.sender, tid);\r\n            mintsPerAddress[msg.sender] += 1;\r\n        }\r\n\r\n    }\r\n\r\n        /**\r\n     * @dev See {IERC721Metadata-tokenURI}.\r\n     */\r\n    function tokenURI(uint256 tokenId_) public view virtual override returns (string memory) {\r\n        require(_exists(tokenId_), \"ERC721Metadata: URI query for nonexistent token\");\r\n    \r\n        string memory baseURI = _baseURI();\r\n        return bytes(baseURI).length > 0 ? string(abi.encodePacked(baseURI, tokenId_.toString(), '.json')) : \"\";           \r\n            \r\n    }\r\n    \r\n    //reserved NFTs for creator\r\n    //mint a @param number of reserved NFTs\r\n    function reservedMint(uint256 number) external onlyOwner {\r\n        require(totalSupply() + number <= maxTotalTokens, \"No NFTs left to mint..\"); //In case we burn tokens\r\n        require(_reservedMints + number <= maxReservedMints, \"Not enough Reserved NFTs for Creator left to mint..\");\r\n        for (uint256 i = 0; i < number; i++) {\r\n            uint256 tid = _reservedMints + 1;\r\n            _safeMint(msg.sender, tid);\r\n            mintsPerAddress[msg.sender] += 1;\r\n            _reservedMints += 1;\r\n        }\r\n    }\r\n\r\n    //begins the minting of the NFTs\r\n    function openPlatinumSale() external onlyOwner{\r\n        require(platinumSaleLaunchTime == 0, \"Platinum Sale is already open!\");\r\n        platinumSaleLaunchTime = block.timestamp;\r\n    }\r\n    \r\n    //begins the minting of the NFTs\r\n    function openPresale() external onlyOwner{\r\n        require(saleState() == State.NoSale, \"Sale has already opened!\");\r\n        presaleLaunchTime = block.timestamp;\r\n    }\r\n\r\n    //begins the minting of the NFTs\r\n    function switchToPublicSale() external onlyOwner{\r\n        require(saleState() != State.PublicSale, \"Already in Public Sale!\");\r\n        require(saleState() == State.Presale, \"Sale has not opened yet!\");\r\n        publicSaleLaunchTime = block.timestamp;\r\n    }\r\n    \r\n    //burn the tokens that have not been sold yet\r\n    function burnUnmintedTokens() external onlyOwner {\r\n        uint totalSupply_ = totalSupply();\r\n\r\n        maxTotalTokens = totalSupply_;\r\n        \r\n        if (totalSupply_ < maxTokensPresale) {\r\n            maxTokensPresale = totalSupply_;\r\n        }\r\n        \r\n    }\r\n    \r\n    //se the current account balance\r\n    function accountBalance() public view returns(uint) {\r\n        return address(this).balance;\r\n    }\r\n    \r\n    //see the total amount of reserved mints that creator has left\r\n    function reservedMintsLeft() public view returns(uint) {\r\n        return maxReservedMints - _reservedMints;\r\n    }\r\n    \r\n    //withdraw funds and distribute them to the shareholders\r\n    function withdrawAll() external onlyOwner {\r\n        uint balance = accountBalance();\r\n        require(balance > 0, \"Balance must be greater than 0\");\r\n\r\n        withdraw(payable(owner()), balance);\r\n    }\r\n    \r\n    function withdraw(address payable _address, uint amount) internal {\r\n        (bool sent, ) = _address.call{value: amount}(\"\");\r\n        require(sent, \"Failed to send Ether\");\r\n    }\r\n\r\n    //get 700 eth and send to community wallet\r\n    function transferToCommunityWallet() external onlyOwner {\r\n        uint balance = accountBalance();\r\n        require(!transfered, 'Function has already been executed!');\r\n        require(balance >= 350 ether, \"Balance must be equal to or greater than 350 eth\");\r\n\r\n\r\n        withdraw(payable(communityWallet), 350 ether);\r\n        transfered = true;\r\n    }\r\n\r\n    function sendToCommunityWallet() internal {\r\n        (bool sent, ) = payable(communityWallet).call{value: msg.value}(\"\");\r\n        require(sent, \"Failed to send Ether\");\r\n    }\r\n    \r\n    // see the maximum number of mints allowed\r\n    function maxMintsPerAddress() external view returns(uint) {\r\n        return maxMints;\r\n    }\r\n    \r\n    //see the time that sale launched\r\n    function publicSalelaunch() external view returns(uint256) {\r\n        require(publicSaleLaunchTime != 0, 'Public Sale has not opened yet!');\r\n        return publicSaleLaunchTime;\r\n    }\r\n\r\n    //see the time that sale launched\r\n    function presalelaunch() external view returns(uint256) {\r\n        require(presaleLaunchTime != 0, 'Presale has not opened yet!');\r\n        return presaleLaunchTime;\r\n    }\r\n\r\n    //see the current state of sale\r\n    function saleState() public view returns(State) {\r\n        if (presaleLaunchTime == 0) {\r\n            return State.NoSale;\r\n        }\r\n        else if (publicSaleLaunchTime == 0) {\r\n            return State.Presale;\r\n        }\r\n        else {\r\n            return State.PublicSale;\r\n        }\r\n    }\r\n\r\n    //see the price to mint\r\n    function mintCost() public view returns(uint) {\r\n        State saleState_ = saleState();\r\n        if (saleState_ == State.NoSale || saleState_ == State.Presale) {\r\n            return mintCostPresale;\r\n        }\r\n        else {\r\n            return mintCostPublicSale;\r\n        }    \r\n    }\r\n\r\n    //owner to release more tokens to platinum sale\r\n    function addTokensPlatinumSale(uint number) external onlyOwner {\r\n        require(maxTokensPlatinumSale + number <= 2000, \"Exceeded the Max Amount (2000) in Platinum Sale!\");\r\n        maxTokensPlatinumSale += number;\r\n    }\r\n\r\n    //see how many tokens are left in platinum sale\r\n    function tokensLeftPlatinumSale() external view returns(uint) {\r\n        return maxTokensPlatinumSale - numberOfTokensPlatinumSale;\r\n    }\r\n    \r\n    //see how many tokens are left in whitelist sale\r\n    function tokensLeftPresale() external view returns(uint) {\r\n        return maxTokensPresale - numberOfTokensPresale;\r\n    }\r\n\r\n    //see if platinum sale is Open\r\n    function platinumSaleIsOpen() external view returns(bool) {\r\n        if (platinumSaleLaunchTime == 0) {\r\n            return false;\r\n        }\r\n        else {\r\n            return true;\r\n        }\r\n    }\r\n\r\n    //change public sale mint price\r\n    function changePublicSaleMintPrice(uint256 newPrice) public onlyOwner {\r\n        require(newPrice > 0, \"Price cannot be 0!\");\r\n        mintCostPublicSale = newPrice;\r\n    }\r\n   \r\n}",
  "sourcePath": "D:\\studio\\Crypto\\contract\\test\\contracts\\NFT.sol",
  "compiler": {
    "name": "solc",
    "version": "0.8.13+commit.abaa5c0e.Emscripten.clang"
  },
  "schemaVersion": "3.4.6",
  "updatedAt": "2022-03-29T05:52:06.693Z",
  "networkType": "ethereum",
  "devdoc": {
    "kind": "dev",
    "methods": {
      "approve(address,uint256)": {
        "details": "See {IERC721-approve}."
      },
      "balanceOf(address)": {
        "details": "See {IERC721-balanceOf}."
      },
      "getApproved(uint256)": {
        "details": "See {IERC721-getApproved}."
      },
      "isApprovedForAll(address,address)": {
        "details": "See {IERC721-isApprovedForAll}."
      },
      "name()": {
        "details": "See {IERC721Metadata-name}."
      },
      "owner()": {
        "details": "Returns the address of the current owner."
      },
      "ownerOf(uint256)": {
        "details": "See {IERC721-ownerOf}."
      },
      "renounceOwnership()": {
        "details": "Leaves the contract without owner. It will not be possible to call `onlyOwner` functions anymore. Can only be called by the current owner. NOTE: Renouncing ownership will leave the contract without an owner, thereby removing any functionality that is only available to the owner."
      },
      "safeTransferFrom(address,address,uint256)": {
        "details": "See {IERC721-safeTransferFrom}."
      },
      "safeTransferFrom(address,address,uint256,bytes)": {
        "details": "See {IERC721-safeTransferFrom}."
      },
      "setApprovalForAll(address,bool)": {
        "details": "See {IERC721-setApprovalForAll}."
      },
      "supportsInterface(bytes4)": {
        "details": "See {IERC165-supportsInterface}."
      },
      "symbol()": {
        "details": "See {IERC721Metadata-symbol}."
      },
      "tokenByIndex(uint256)": {
        "details": "See {IERC721Enumerable-tokenByIndex}."
      },
      "tokenOfOwnerByIndex(address,uint256)": {
        "details": "See {IERC721Enumerable-tokenOfOwnerByIndex}."
      },
      "tokenURI(uint256)": {
        "details": "See {IERC721Metadata-tokenURI}."
      },
      "totalSupply()": {
        "details": "See {IERC721Enumerable-totalSupply}."
      },
      "transferFrom(address,address,uint256)": {
        "details": "See {IERC721-transferFrom}."
      },
      "transferOwnership(address)": {
        "details": "Transfers ownership of the contract to a new account (`newOwner`). Can only be called by the current owner."
      }
    },
    "version": 1
  },
  "userdoc": {
    "kind": "user",
    "methods": {},
    "version": 1
  }
}